Component: ARM Compiler 5.06 update 6 (build 750) Tool: armlink [4d35ed]

==============================================================================

Section Cross References

    system_w32f006.o(i.SystemCoreClockUpdate) refers to system_w32f006.o(i.SetSysClockTo96) for SetSysClockTo96
    system_w32f006.o(i.SystemInit) refers to system_w32f006.o(i.SetSysClockTo96) for SetSysClockTo96
    startup_w32f006.o(RESET) refers to startup_w32f006.o(STACK) for __initial_sp
    startup_w32f006.o(RESET) refers to startup_w32f006.o(.text) for Reset_Handler
    startup_w32f006.o(RESET) refers to w32f006_it.o(i.NMI_Handler) for NMI_Handler
    startup_w32f006.o(RESET) refers to w32f006_it.o(i.HardFault_Handler) for HardFault_Handler
    startup_w32f006.o(RESET) refers to w32f006_it.o(i.SVC_Handler) for SVC_Handler
    startup_w32f006.o(RESET) refers to w32f006_it.o(i.PendSV_Handler) for PendSV_Handler
    startup_w32f006.o(RESET) refers to w32f006_it.o(i.SysTick_Handler) for SysTick_Handler
    startup_w32f006.o(RESET) refers to w32f006_eval_i2c_ee.o(i.I2C0_IRQHandler) for I2C0_IRQHandler
    startup_w32f006.o(RESET) refers to w32f006_tk_lib_v1.0.o(i.TSC_IRQHandler) for TSC_IRQHandler
    startup_w32f006.o(.text) refers to system_w32f006.o(i.SystemInit) for SystemInit
    startup_w32f006.o(.text) refers to entry.o(.ARM.Collect$$$$00000000) for __main
    main.o(i.GPIO_Configuration) refers to w32f006_rcc.o(i.RCC_APBPeriphClockCmd) for RCC_APBPeriphClockCmd
    main.o(i.GPIO_Configuration) refers to w32f006_gpio.o(i.GPIO_Init) for GPIO_Init
    main.o(i.GPIO_Configuration) refers to w32f006_gpio.o(i.GPIO_WriteBit) for GPIO_WriteBit
    main.o(i.UART_Configuration) refers to w32f006_rcc.o(i.RCC_APBPeriphClockCmd) for RCC_APBPeriphClockCmd
    main.o(i.UART_Configuration) refers to w32f006_rcc.o(i.RCC_UARTCLKSel) for RCC_UARTCLKSel
==============================================================================

Removing Unused input sections from the image.

    Removing system_w32f006.o(.rev16_text), (4 bytes).
    Removing system_w32f006.o(.revsh_text), (4 bytes).
    Removing system_w32f006.o(i.SystemCoreClockUpdate), (8 bytes).
    Removing startup_w32f006.o(HEAP), (1024 bytes).
    Removing main.o(.rev16_text), (4 bytes).
    Removing main.o(.revsh_text), (4 bytes).
    Removing w32f006_it.o(.rev16_text), (4 bytes).
    Removing w32f006_it.o(.revsh_text), (4 bytes).
    Removing w32f006_it.o(i.BusFault_Handler), (2 bytes).
    Removing w32f006_it.o(i.DebugMon_Handler), (2 bytes).
    Removing w32f006_it.o(i.MemManage_Handler), (2 bytes).
    Removing w32f006_it.o(i.UsageFault_Handler), (2 bytes).
    Removing misc.o(.rev16_text), (4 bytes).
    Removing misc.o(.revsh_text), (4 bytes).
    Removing misc.o(i.NVIC_Init), (80 bytes).
    Removing misc.o(i.NVIC_SystemLPConfig), (24 bytes).
    Removing misc.o(i.SysTick_CLKSourceConfig), (24 bytes).
    Removing w32f006_acmp.o(.rev16_text), (4 bytes).
==============================================================================

Image Symbol Table

    Local Symbols

    Symbol Name                              Value     Ov Type        Size  Object(Section)

    ../clib/microlib/division.c              0x00000000   Number         0  uidiv.o ABSOLUTE
    ../clib/microlib/division.c              0x00000000   Number         0  uldiv.o ABSOLUTE
    ../clib/microlib/init/entry.s            0x00000000   Number         0  entry10a.o ABSOLUTE
    ../clib/microlib/init/entry.s            0x00000000   Number         0  entry2.o ABSOLUTE
    ../clib/microlib/init/entry.s            0x00000000   Number         0  entry5.o ABSOLUTE
    ../clib/microlib/init/entry.s            0x00000000   Number         0  entry.o ABSOLUTE
    ../clib/microlib/init/entry.s            0x00000000   Number         0  entry7a.o ABSOLUTE
    ../clib/microlib/init/entry.s            0x00000000   Number         0  entry8b.o ABSOLUTE
    ../clib/microlib/init/entry.s            0x00000000   Number         0  entry11a.o ABSOLUTE
    ../clib/microlib/init/entry.s            0x00000000   Number         0  entry9a.o ABSOLUTE
    ../clib/microlib/init/entry.s            0x00000000   Number         0  entry9b.o ABSOLUTE
    ../clib/microlib/init/entry.s            0x00000000   Number         0  entry7b.o ABSOLUTE
    ../clib/microlib/init/entry.s            0x00000000   Number         0  entry8a.o ABSOLUTE
    ../clib/microlib/init/entry.s            0x00000000   Number         0  entry10b.o ABSOLUTE
    ../clib/microlib/init/entry.s            0x00000000   Number         0  entry11b.o ABSOLUTE
    ../clib/microlib/longlong.c              0x00000000   Number         0  llsshr.o ABSOLUTE
    ../clib/microlib/longlong.c              0x00000000   Number         0  llushr.o ABSOLUTE
    ../clib/microlib/longlong.c              0x00000000   Number         0  llshl.o ABSOLUTE
    ../clib/microlib/printf/printf.c         0x00000000   Number         0  printf4.o ABSOLUTE
    ../clib/microlib/printf/printf.c         0x00000000   Number         0  printf3.o ABSOLUTE
    ../clib/microlib/printf/printf.c         0x00000000   Number         0  printf2.o ABSOLUTE
    ../clib/microlib/printf/printf.c         0x00000000   Number         0  printf1.o ABSOLUTE
    ../clib/microlib/printf/printf.c         0x00000000   Number         0  printf0.o ABSOLUTE
    ../clib/microlib/printf/printf.c         0x00000000   Number         0  printfa.o ABSOLUTE
    ../clib/microlib/printf/printf.c         0x00000000   Number         0  printf8.o ABSOLUTE
    ../clib/microlib/printf/printf.c         0x00000000   Number         0  printf7.o ABSOLUTE
    ../clib/microlib/printf/printf.c         0x00000000   Number         0  printf6.o ABSOLUTE
    ../clib/microlib/printf/printf.c         0x00000000   Number         0  printfb.o ABSOLUTE
    ../clib/microlib/printf/printf.c         0x00000000   Number         0  printf5.o ABSOLUTE
    ../clib/microlib/printf/stubs.s          0x00000000   Number         0  stubs.o ABSOLUTE
    ../clib/microlib/stdio/streams.c         0x00000000   Number         0  stdout.o ABSOLUTE
    ../clib/microlib/stubs.s                 0x00000000   Number         0  iusefp.o ABSOLUTE
    ../fplib/microlib/fpadd.c                0x00000000   Number         0  dadd.o ABSOLUTE
    ../fplib/microlib/fpdiv.c                0x00000000   Number         0  ddiv.o ABSOLUTE
    ../fplib/microlib/fpepilogue.c           0x00000000   Number         0  depilogue.o ABSOLUTE
    ../fplib/microlib/fpfix.c                0x00000000   Number         0  dfixul.o ABSOLUTE
    ../fplib/microlib/fpmul.c                0x00000000   Number         0  dmul.o ABSOLUTE
    ..\..\..\Libraries\CMSIS\Device\MIC\W32F006\Source\Templates\ARM\startup_w32f006.s 0x00000000   Number         0  startup_w32f006.o ABSOLUTE
    ..\..\..\Libraries\CMSIS\Device\MIC\W32F006\Source\Templates\system_w32f006.c 0x00000000   Number         0  system_w32f006.o ABSOLUTE
    ..\..\..\Libraries\Touch_Key\w32f006_tk_lib_V1.0.c 0x00000000   Number         0  w32f006_tk_lib_v1.0.o ABSOLUTE
    ..\..\..\Libraries\W32F006_StdPeriph_Driver\src\misc.c 0x00000000   Number         0  misc.o ABSOLUTE
    ..\..\..\Libraries\W32F006_StdPeriph_Driver\src\w32f006_acmp.c 0x00000000   Number         0  w32f006_acmp.o ABSOLUTE
    ..\..\..\Libraries\W32F006_StdPeriph_Driver\src\w32f006_adc.c 0x00000000   Number         0  w32f006_adc.o ABSOLUTE
    ..\..\..\Libraries\W32F006_StdPeriph_Driver\src\w32f006_can.c 0x00000000   Number         0  w32f006_can.o ABSOLUTE
    ..\..\..\Libraries\W32F006_StdPeriph_Driver\src\w32f006_crs.c 0x00000000   Number         0  w32f006_crs.o ABSOLUTE
    ..\..\..\Libraries\W32F006_StdPeriph_Driver\src\w32f006_flash.c 0x00000000   Number         0  w32f006_flash.o ABSOLUTE
    ..\..\..\Libraries\W32F006_StdPeriph_Driver\src\w32f006_gpio.c 0x00000000   Number         0  w32f006_gpio.o ABSOLUTE
    ..\..\..\Libraries\W32F006_StdPeriph_Driver\src\w32f006_i2c.c 0x00000000   Number         0  w32f006_i2c.o ABSOLUTE
    ..\..\..\Libraries\W32F006_StdPeriph_Driver\src\w32f006_iwdg.c 0x00000000   Number         0  w32f006_iwdg.o ABSOLUTE
    ..\..\..\Libraries\W32F006_StdPeriph_Driver\src\w32f006_mcpwm.c 0x00000000   Number         0  w32f006_mcpwm.o ABSOLUTE
    ..\..\..\Libraries\W32F006_StdPeriph_Driver\src\w32f006_rcc.c 0x00000000   Number         0  w32f006_rcc.o ABSOLUTE
    ..\..\..\Libraries\W32F006_StdPeriph_Driver\src\w32f006_spi.c 0x00000000   Number         0  w32f006_spi.o ABSOLUTE
    ..\..\..\Libraries\W32F006_StdPeriph_Driver\src\w32f006_stimer.c 0x00000000   Number         0  w32f006_stimer.o ABSOLUTE
    ..\..\..\Libraries\W32F006_StdPeriph_Driver\src\w32f006_timer.c 0x00000000   Number         0  w32f006_timer.o ABSOLUTE
    ..\..\..\Libraries\W32F006_StdPeriph_Driver\src\w32f006_tsc.c 0x00000000   Number         0  w32f006_tsc.o ABSOLUTE
    ..\..\..\Libraries\W32F006_StdPeriph_Driver\src\w32f006_uart.c 0x00000000   Number         0  w32f006_uart.o ABSOLUTE
    ..\..\..\Libraries\W32F006_StdPeriph_Driver\src\w32f006_wwdg.c 0x00000000   Number         0  w32f006_wwdg.o ABSOLUTE
    ..\..\..\Utilities\W32F006_EVAL\Common\w32f006_eval_i2c_ee.c 0x00000000   Number         0  w32f006_eval_i2c_ee.o ABSOLUTE
    ..\..\..\Utilities\W32F006_EVAL\Common\w32f006_eval_spi.c 0x00000000   Number         0  w32f006_eval_spi.o ABSOLUTE
    ..\..\..\Utilities\W32F006_EVAL\w32f006_eval.c 0x00000000   Number         0  w32f006_eval.o ABSOLUTE
    ..\\..\\..\\Libraries\\CMSIS\\Device\\MIC\\W32F006\\Source\\Templates\\system_w32f006.c 0x00000000   Number         0  system_w32f006.o ABSOLUTE
    ..\\..\\..\\Libraries\\Touch_Key\\w32f006_tk_lib_V1.0.c 0x00000000   Number         0  w32f006_tk_lib_v1.0.o ABSOLUTE
    ..\\..\\..\\Libraries\\W32F006_StdPeriph_Driver\\src\\misc.c 0x00000000   Number         0  misc.o ABSOLUTE
    ..\\..\\..\\Libraries\\W32F006_StdPeriph_Driver\\src\\w32f006_acmp.c 0x00000000   Number         0  w32f006_acmp.o ABSOLUTE
    ..\\..\\..\\Libraries\\W32F006_StdPeriph_Driver\\src\\w32f006_adc.c 0x00000000   Number         0  w32f006_adc.o ABSOLUTE
    ..\\..\\..\\Libraries\\W32F006_StdPeriph_Driver\\src\\w32f006_can.c 0x00000000   Number         0  w32f006_can.o ABSOLUTE
    ..\\..\\..\\Libraries\\W32F006_StdPeriph_Driver\\src\\w32f006_crs.c 0x00000000   Number         0  w32f006_crs.o ABSOLUTE
    ..\\..\\..\\Libraries\\W32F006_StdPeriph_Driver\\src\\w32f006_flash.c 0x00000000   Number         0  w32f006_flash.o ABSOLUTE
    ..\\..\\..\\Libraries\\W32F006_StdPeriph_Driver\\src\\w32f006_gpio.c 0x00000000   Number         0  w32f006_gpio.o ABSOLUTE
    ..\\..\\..\\Libraries\\W32F006_StdPeriph_Driver\\src\\w32f006_i2c.c 0x00000000   Number         0  w32f006_i2c.o ABSOLUTE
    ..\\..\\..\\Libraries\\W32F006_StdPeriph_Driver\\src\\w32f006_iwdg.c 0x00000000   Number         0  w32f006_iwdg.o ABSOLUTE
    ..\\..\\..\\Libraries\\W32F006_StdPeriph_Driver\\src\\w32f006_mcpwm.c 0x00000000   Number         0  w32f006_mcpwm.o ABSOLUTE
    ..\\..\\..\\Libraries\\W32F006_StdPeriph_Driver\\src\\w32f006_rcc.c 0x00000000   Number         0  w32f006_rcc.o ABSOLUTE
    ..\\..\\..\\Libraries\\W32F006_StdPeriph_Driver\\src\\w32f006_spi.c 0x00000000   Number         0  w32f006_spi.o ABSOLUTE
    ..\\..\\..\\Libraries\\W32F006_StdPeriph_Driver\\src\\w32f006_stimer.c 0x00000000   Number         0  w32f006_stimer.o ABSOLUTE
    ..\\..\\..\\Libraries\\W32F006_StdPeriph_Driver\\src\\w32f006_timer.c 0x00000000   Number         0  w32f006_timer.o ABSOLUTE
    ..\\..\\..\\Libraries\\W32F006_StdPeriph_Driver\\src\\w32f006_tsc.c 0x00000000   Number         0  w32f006_tsc.o ABSOLUTE
    ..\\..\\..\\Libraries\\W32F006_StdPeriph_Driver\\src\\w32f006_uart.c 0x00000000   Number         0  w32f006_uart.o ABSOLUTE
    ..\\..\\..\\Libraries\\W32F006_StdPeriph_Driver\\src\\w32f006_wwdg.c 0x00000000   Number         0  w32f006_wwdg.o ABSOLUTE
    ..\\..\\..\\Utilities\\W32F006_EVAL\\Common\\w32f006_eval_i2c_ee.c 0x00000000   Number         0  w32f006_eval_i2c_ee.o ABSOLUTE
    ..\\..\\..\\Utilities\\W32F006_EVAL\\Common\\w32f006_eval_spi.c 0x00000000   Number         0  w32f006_eval_spi.o ABSOLUTE
    ..\\..\\..\\Utilities\\W32F006_EVAL\\w32f006_eval.c 0x00000000   Number         0  w32f006_eval.o ABSOLUTE
    ..\\main.c                               0x00000000   Number         0  main.o ABSOLUTE
    ..\\w32f006_it.c                         0x00000000   Number         0  w32f006_it.o ABSOLUTE
    ..\main.c                                0x00000000   Number         0  main.o ABSOLUTE
    ..\w32f006_it.c                          0x00000000   Number         0  w32f006_it.o ABSOLUTE
    cdrcmple.s                               0x00000000   Number         0  cdrcmple.o ABSOLUTE
    dc.s                                     0x00000000   Number         0  dc.o ABSOLUTE
    handlers.s                               0x00000000   Number         0  handlers.o ABSOLUTE
    init.s                                   0x00000000   Number         0  init.o ABSOLUTE
    RESET                                    0x08000000   Section      128  startup_w32f006.o(RESET)
    .ARM.Collect$$$$00000000                 0x08000080   Section        0  entry.o(.ARM.Collect$$$$00000000)
    .ARM.Collect$$$$00000001                 0x08000080   Section        4  entry2.o(.ARM.Collect$$$$00000001)
    .ARM.Collect$$$$00000004                 0x08000084   Section        4  entry5.o(.ARM.Collect$$$$00000004)
    .ARM.Collect$$$$00000008                 0x08000088   Section        0  entry7b.o(.ARM.Collect$$$$00000008)
    .ARM.Collect$$$$0000000A                 0x08000088   Section        0  entry8b.o(.ARM.Collect$$$$0000000A)
    .ARM.Collect$$$$0000000B                 0x08000088   Section        8  entry9a.o(.ARM.Collect$$$$0000000B)
    .ARM.Collect$$$$0000000D                 0x08000090   Section        0  entry10a.o(.ARM.Collect$$$$0000000D)
    .ARM.Collect$$$$0000000F                 0x08000090   Section        0  entry11a.o(.ARM.Collect$$$$0000000F)
    .ARM.Collect$$$$00002712                 0x08000090   Section        4  entry2.o(.ARM.Collect$$$$00002712)
    __lit__00000000                          0x08000090   Data           4  entry2.o(.ARM.Collect$$$$00002712)
    .text                                    0x08000094   Section       28  startup_w32f006.o(.text)
    .text                                    0x080000b0   Section        0  uidiv.o(.text)
    .text                                    0x080000dc   Section        0  uldiv.o(.text)
    .text                                    0x0800013c   Section       36  init.o(.text)
    .text                                    0x08000160   Section        0  llshl.o(.text)
    .text                                    0x08000180   Section        0  llushr.o(.text)
    i.GPIO_Configuration                     0x080001a2   Section        0  main.o(i.GPIO_Configuration)
    i.GPIO_Init                              0x080001d0   Section        0  w32f006_gpio.o(i.GPIO_Init)
    i.GPIO_WriteBit                          0x08000254   Section        0  w32f006_gpio.o(i.GPIO_WriteBit)
    i.HardFault_Handler                      0x08000270   Section        0  w32f006_it.o(i.HardFault_Handler)
    i.I2C0_IRQHandler                        0x08000274   Section        0  w32f006_eval_i2c_ee.o(i.I2C0_IRQHandler)
    i.I2C_ClearBusError                      0x080002a0   Section        0  w32f006_i2c.o(i.I2C_ClearBusError)
    i.I2C_GetITStatus                        0x080002b8   Section        0  w32f006_i2c.o(i.I2C_GetITStatus)
    i.NMI_Handler                            0x080002c4   Section        0  w32f006_it.o(i.NMI_Handler)
    i.PendSV_Handler                         0x080002c6   Section        0  w32f006_it.o(i.PendSV_Handler)
    i.RCC_APBPeriphClockCmd                  0x080002c8   Section        0  w32f006_rcc.o(i.RCC_APBPeriphClockCmd)
    i.RCC_APBPeriphResetCmd                  0x080002d8   Section        0  w32f006_rcc.o(i.RCC_APBPeriphResetCmd)
    i.RCC_GetClocksFreq                      0x080002e8   Section        0  w32f006_rcc.o(i.RCC_GetClocksFreq)
    i.RCC_SETCLKDivider                      0x08000414   Section        0  w32f006_rcc.o(i.RCC_SETCLKDivider)
    i.RCC_UARTCLKSel                         0x08000420   Section        0  w32f006_rcc.o(i.RCC_UARTCLKSel)
    i.SVC_Handler                            0x08000434   Section        0  w32f006_it.o(i.SVC_Handler)
    i.SetSysClockTo96                        0x08000438   Section        0  system_w32f006.o(i.SetSysClockTo96)
    SetSysClockTo96                          0x08000439   Thumb Code    92  system_w32f006.o(i.SetSysClockTo96)
    i.SysTick_Handler                        0x080004a8   Section        0  w32f006_it.o(i.SysTick_Handler)
    i.SystemInit                             0x080004ac   Section        0  system_w32f006.o(i.SystemInit)
    i.TSC_ClearITPendingBit                  0x080004c4   Section        0  w32f006_tsc.o(i.TSC_ClearITPendingBit)
    i.TSC_GetITStatus                        0x080004d4   Section        0  w32f006_tsc.o(i.TSC_GetITStatus)
    i.TSC_IRQHandler                         0x080004f0   Section        0  w32f006_tk_lib_v1.0.o(i.TSC_IRQHandler)
    i.UART_Cmd                               0x08000514   Section        0  w32f006_uart.o(i.UART_Cmd)
    i.UART_Configuration                     0x08000530   Section        0  main.o(i.UART_Configuration)
    i.UART_DeInit                            0x08000586   Section        0  w32f006_uart.o(i.UART_DeInit)
    i.UART_GetFlagStatus                     0x0800059c   Section        0  w32f006_uart.o(i.UART_GetFlagStatus)
    i.UART_Init                              0x080005b0   Section        0  w32f006_uart.o(i.UART_Init)
    i.UART_SendData                          0x080005f4   Section        0  w32f006_uart.o(i.UART_SendData)
    i.UART_StructInit                        0x08000600   Section        0  w32f006_uart.o(i.UART_StructInit)
    i.__0printf$5                            0x0800061c   Section        0  printf5.o(i.__0printf$5)
    i.__scatterload_copy                     0x0800063c   Section       14  handlers.o(i.__scatterload_copy)
    i.__scatterload_null                     0x0800064a   Section        2  handlers.o(i.__scatterload_null)
    i.__scatterload_zeroinit                 0x0800064c   Section       14  handlers.o(i.__scatterload_zeroinit)
    i._printf_core                           0x0800065c   Section        0  printf5.o(i._printf_core)
    _printf_core                             0x0800065d   Thumb Code   688  printf5.o(i._printf_core)
    i.fputc                                  0x08000938   Section        0  main.o(i.fputc)
    i.main                                   0x08000950   Section        0  main.o(i.main)
    .conststring                             0x08000964   Section       69  main.o(.conststring)
    .data                                    0x20000000   Section        4  system_w32f006.o(.data)
    .data                                    0x20000004   Section        4  system_w32f006.o(.data)
    .data                                    0x20000008   Section       36  w32f006_eval_i2c_ee.o(.data)
    .data                                    0x2000002c   Section       32  w32f006_tk_lib_v1.0.o(.data)
    .data                                    0x2000004c   Section        4  stdout.o(.data)
    STACK                                    0x20000050   Section     1024  startup_w32f006.o(STACK)

    Global Symbols

    Symbol Name                              Value     Ov Type        Size  Object(Section)

    BuildAttributes$$THM_ISAv3M$S$PE$A:L22$X:L11$S22$IEEE1$IW$USESV6$~STKCKD$USESV7$~SHL$OSPACE$ROPI$EBA8$MICROLIB$REQ8$PRES8$EABIv2 0x00000000   Number         0  anon$$obj.o ABSOLUTE
    __ARM_use_no_argv                        0x00000000   Number         0  main.o ABSOLUTE
    _printf_a                                0x00000000   Number         0  stubs.o ABSOLUTE
    _printf_c                                0x00000000   Number         0  stubs.o ABSOLUTE
    _printf_charcount                        0x00000000   Number         0  stubs.o ABSOLUTE
    _printf_d                                0x00000000   Number         0  stubs.o ABSOLUTE
    _printf_e                                0x00000000   Number         0  stubs.o ABSOLUTE
    _printf_f                                0x00000000   Number         0  stubs.o ABSOLUTE
    _printf_flags                            0x00000000   Number         0  stubs.o ABSOLUTE
    _printf_fp_dec                           0x00000000   Number         0  stubs.o ABSOLUTE
    _printf_fp_hex                           0x00000000   Number         0  stubs.o ABSOLUTE
    _printf_g                                0x00000000   Number         0  stubs.o ABSOLUTE
    _printf_i                                0x00000000   Number         0  stubs.o ABSOLUTE
    _printf_int_dec                          0x00000000   Number         0  stubs.o ABSOLUTE
    _printf_l                                0x00000000   Number         0  stubs.o ABSOLUTE
    _printf_lc                               0x00000000   Number         0  stubs.o ABSOLUTE
    _printf_ll                               0x00000000   Number         0  stubs.o ABSOLUTE
    _printf_lld                              0x00000000   Number         0  stubs.o ABSOLUTE
    _printf_lli                              0x00000000   Number         0  stubs.o ABSOLUTE
    _printf_llo                              0x00000000   Number         0  stubs.o ABSOLUTE
    _printf_llu                              0x00000000   Number         0  stubs.o ABSOLUTE
    _printf_llx                              0x00000000   Number         0  stubs.o ABSOLUTE
    _printf_longlong_dec                     0x00000000   Number         0  stubs.o ABSOLUTE
    _printf_longlong_hex                     0x00000000   Number         0  stubs.o ABSOLUTE
    _printf_longlong_oct                     0x00000000   Number         0  stubs.o ABSOLUTE
    _printf_ls                               0x00000000   Number         0  stubs.o ABSOLUTE
    _printf_mbtowc                           0x00000000   Number         0  stubs.o ABSOLUTE
    _printf_n                                0x00000000   Number         0  stubs.o ABSOLUTE
    _printf_o                                0x00000000   Number         0  stubs.o ABSOLUTE
    _printf_p                                0x00000000   Number         0  stubs.o ABSOLUTE
    _printf_percent                          0x00000000   Number         0  stubs.o ABSOLUTE
    _printf_pre_padding                      0x00000000   Number         0  stubs.o ABSOLUTE
    _printf_return_value                     0x00000000   Number         0  stubs.o ABSOLUTE
    _printf_s                                0x00000000   Number         0  stubs.o ABSOLUTE
    _printf_sizespec                         0x00000000   Number         0  stubs.o ABSOLUTE
    _printf_str                              0x00000000   Number         0  stubs.o ABSOLUTE
    _printf_truncate_signed                  0x00000000   Number         0  stubs.o ABSOLUTE
    _printf_truncate_unsigned                0x00000000   Number         0  stubs.o ABSOLUTE
    _printf_u                                0x00000000   Number         0  stubs.o ABSOLUTE
    _printf_wc                               0x00000000   Number         0  stubs.o ABSOLUTE
    _printf_wctomb                           0x00000000   Number         0  stubs.o ABSOLUTE
    _printf_widthprec                        0x00000000   Number         0  stubs.o ABSOLUTE
    _printf_x                                0x00000000   Number         0  stubs.o ABSOLUTE
    __cpp_initialize__aeabi_                  - Undefined Weak Reference
    __cxa_finalize                            - Undefined Weak Reference
    __decompress                              - Undefined Weak Reference
    _clock_init                               - Undefined Weak Reference
    _microlib_exit                            - Undefined Weak Reference
    __Vectors_Size                           0x00000080   Number         0  startup_w32f006.o ABSOLUTE
    __Vectors                                0x08000000   Data           4  startup_w32f006.o(RESET)
    __Vectors_End                            0x08000080   Data           0  startup_w32f006.o(RESET)
    __main                                   0x08000081   Thumb Code     0  entry.o(.ARM.Collect$$$$00000000)
    _main_stk                                0x08000081   Thumb Code     0  entry2.o(.ARM.Collect$$$$00000001)
    _main_scatterload                        0x08000085   Thumb Code     0  entry5.o(.ARM.Collect$$$$00000004)
    __main_after_scatterload                 0x08000089   Thumb Code     0  entry5.o(.ARM.Collect$$$$00000004)
    _main_clock                              0x08000089   Thumb Code     0  entry7b.o(.ARM.Collect$$$$00000008)
    _main_cpp_init                           0x08000089   Thumb Code     0  entry8b.o(.ARM.Collect$$$$0000000A)
    _main_init                               0x08000089   Thumb Code     0  entry9a.o(.ARM.Collect$$$$0000000B)
    __rt_final_cpp                           0x08000091   Thumb Code     0  entry10a.o(.ARM.Collect$$$$0000000D)
    __rt_final_exit                          0x08000091   Thumb Code     0  entry11a.o(.ARM.Collect$$$$0000000F)
    Reset_Handler                            0x08000095   Thumb Code     8  startup_w32f006.o(.text)
    ACMP_IRQHandler                          0x080000a7   Thumb Code     0  startup_w32f006.o(.text)
    ADC_IRQHandler                           0x080000a7   Thumb Code     0  startup_w32f006.o(.text)
    BOD_IRQHandler                           0x080000a7   Thumb Code     0  startup_w32f006.o(.text)
    BOR_IRQHandler                           0x080000a7   Thumb Code     0  startup_w32f006.o(.text)
    CAN_IRQHandler                           0x080000a7   Thumb Code     0  startup_w32f006.o(.text)
    CRS_IRQHandler                           0x080000a7   Thumb Code     0  startup_w32f006.o(.text)
    FLASH_IRQHandler                         0x080000a7   Thumb Code     0  startup_w32f006.o(.text)
    GPIO_IRQHandler                          0x080000a7   Thumb Code     0  startup_w32f006.o(.text)
    MCPWM_IRQHandler                         0x080000a7   Thumb Code     0  startup_w32f006.o(.text)
    SPI0_IRQHandler                          0x080000a7   Thumb Code     0  startup_w32f006.o(.text)
    STIMER_IRQHandler                        0x080000a7   Thumb Code     0  startup_w32f006.o(.text)
    TIMER0_IRQHandler                        0x080000a7   Thumb Code     0  startup_w32f006.o(.text)
    UART0_IRQHandler                         0x080000a7   Thumb Code     0  startup_w32f006.o(.text)
    USB_IRQHandler                           0x080000a7   Thumb Code     0  startup_w32f006.o(.text)
    __aeabi_uidiv                            0x080000b1   Thumb Code     0  uidiv.o(.text)
    __aeabi_uidivmod                         0x080000b1   Thumb Code    44  uidiv.o(.text)
    __aeabi_uldivmod                         0x080000dd   Thumb Code    96  uldiv.o(.text)
    __scatterload                            0x0800013d   Thumb Code    28  init.o(.text)
    __scatterload_rt2                        0x0800013d   Thumb Code     0  init.o(.text)
    __aeabi_llsl                             0x08000161   Thumb Code    32  llshl.o(.text)
    _ll_shift_l                              0x08000161   Thumb Code     0  llshl.o(.text)
    __aeabi_llsr                             0x08000181   Thumb Code    34  llushr.o(.text)
    _ll_ushift_r                             0x08000181   Thumb Code     0  llushr.o(.text)
    GPIO_Configuration                       0x080001a3   Thumb Code    46  main.o(i.GPIO_Configuration)
    GPIO_Init                                0x080001d1   Thumb Code   120  w32f006_gpio.o(i.GPIO_Init)
    GPIO_WriteBit                            0x08000255   Thumb Code    22  w32f006_gpio.o(i.GPIO_WriteBit)
    HardFault_Handler                        0x08000271   Thumb Code     2  w32f006_it.o(i.HardFault_Handler)
    I2C0_IRQHandler                          0x08000275   Thumb Code    34  w32f006_eval_i2c_ee.o(i.I2C0_IRQHandler)
    I2C_ClearBusError                        0x080002a1   Thumb Code    18  w32f006_i2c.o(i.I2C_ClearBusError)
    I2C_GetITStatus                          0x080002b9   Thumb Code     8  w32f006_i2c.o(i.I2C_GetITStatus)
    NMI_Handler                              0x080002c5   Thumb Code     2  w32f006_it.o(i.NMI_Handler)
    PendSV_Handler                           0x080002c7   Thumb Code     2  w32f006_it.o(i.PendSV_Handler)
    RCC_APBPeriphClockCmd                    0x080002c9   Thumb Code    16  w32f006_rcc.o(i.RCC_APBPeriphClockCmd)
    RCC_APBPeriphResetCmd                    0x080002d9   Thumb Code    16  w32f006_rcc.o(i.RCC_APBPeriphResetCmd)
    RCC_GetClocksFreq                        0x080002e9   Thumb Code   274  w32f006_rcc.o(i.RCC_GetClocksFreq)
    RCC_SETCLKDivider                        0x08000415   Thumb Code    10  w32f006_rcc.o(i.RCC_SETCLKDivider)
    RCC_UARTCLKSel                           0x08000421   Thumb Code    14  w32f006_rcc.o(i.RCC_UARTCLKSel)
    SVC_Handler                              0x08000435   Thumb Code     2  w32f006_it.o(i.SVC_Handler)
    SysTick_Handler                          0x080004a9   Thumb Code     2  w32f006_it.o(i.SysTick_Handler)
    SystemInit                               0x080004ad   Thumb Code    14  system_w32f006.o(i.SystemInit)
    TSC_ClearITPendingBit                    0x080004c5   Thumb Code    12  w32f006_tsc.o(i.TSC_ClearITPendingBit)
    TSC_GetITStatus                          0x080004d5   Thumb Code    24  w32f006_tsc.o(i.TSC_GetITStatus)
    TSC_IRQHandler                           0x080004f1   Thumb Code    28  w32f006_tk_lib_v1.0.o(i.TSC_IRQHandler)
    UART_Cmd                                 0x08000515   Thumb Code    22  w32f006_uart.o(i.UART_Cmd)
    UART_Configuration                       0x08000531   Thumb Code    86  main.o(i.UART_Configuration)
    UART_DeInit                              0x08000587   Thumb Code    20  w32f006_uart.o(i.UART_DeInit)
    UART_GetFlagStatus                       0x0800059d   Thumb Code    16  w32f006_uart.o(i.UART_GetFlagStatus)
    UART_Init                                0x080005b1   Thumb Code    62  w32f006_uart.o(i.UART_Init)
    UART_SendData                            0x080005f5   Thumb Code     6  w32f006_uart.o(i.UART_SendData)
    UART_StructInit                          0x08000601   Thumb Code    28  w32f006_uart.o(i.UART_StructInit)
    __0printf$5                              0x0800061d   Thumb Code    24  printf5.o(i.__0printf$5)
    __1printf$5                              0x0800061d   Thumb Code     0  printf5.o(i.__0printf$5)
    __2printf                                0x0800061d   Thumb Code     0  printf5.o(i.__0printf$5)
    __scatterload_copy                       0x0800063d   Thumb Code    14  handlers.o(i.__scatterload_copy)
    __scatterload_null                       0x0800064b   Thumb Code     2  handlers.o(i.__scatterload_null)
    __scatterload_zeroinit                   0x0800064d   Thumb Code    14  handlers.o(i.__scatterload_zeroinit)
    fputc                                    0x08000939   Thumb Code    24  main.o(i.fputc)
    main                                     0x08000951   Thumb Code    16  main.o(i.main)
    Region$$Table$$Base                      0x080009ac   Number         0  anon$$obj.o(Region$$Table)
    Region$$Table$$Limit                     0x080009cc   Number         0  anon$$obj.o(Region$$Table)
    SystemCoreClock                          0x20000000   Data           4  system_w32f006.o(.data)
    SystemSourceClock                        0x20000004   Data           4  system_w32f006.o(.data)
    EEPROM_RegAddr                           0x20000008   Data           1  w32f006_eval_i2c_ee.o(.data)
    Slave_RxData                             0x20000009   Data           3  w32f006_eval_i2c_ee.o(.data)
    I2C_HandlerFn                            0x2000000c   Data           4  w32f006_eval_i2c_ee.o(.data)
    Master_EndFlag                           0x20000010   Data           4  w32f006_eval_i2c_ee.o(.data)
    Master_TxData                            0x20000014   Data           4  w32f006_eval_i2c_ee.o(.data)
    Master_RxData                            0x20000018   Data           4  w32f006_eval_i2c_ee.o(.data)
    Master_DataIndex                         0x2000001c   Data           4  w32f006_eval_i2c_ee.o(.data)
    Master_DataSize                          0x20000020   Data           4  w32f006_eval_i2c_ee.o(.data)
    Slave_Index                              0x20000024   Data           4  w32f006_eval_i2c_ee.o(.data)
    Slave_RxIndex                            0x20000028   Data           4  w32f006_eval_i2c_ee.o(.data)
    TouchKey_Poll_Init                       0x2000002c   Data           4  w32f006_tk_lib_v1.0.o(.data)
    TouchKey_Status                          0x20000030   Data           4  w32f006_tk_lib_v1.0.o(.data)
    TouchKey_ISR                             0x20000034   Data           4  w32f006_tk_lib_v1.0.o(.data)
    TSC_IO                                   0x20000038   Data           4  w32f006_tk_lib_v1.0.o(.data)
    TouchKey_IO                              0x2000003c   Data           8  w32f006_tk_lib_v1.0.o(.data)
    TouchKey_Threshold                       0x20000044   Data           8  w32f006_tk_lib_v1.0.o(.data)
    __stdout                                 0x2000004c   Data           4  stdout.o(.data)
    __initial_sp                             0x20000450   Data           0  startup_w32f006.o(STACK)



==============================================================================

Memory Map of the image

  Image Entry point : 0x08000081

  Load Region LR_IROM1 (Base: 0x08000000, Size: 0x00000a1c, Max: 0x00008000, ABSOLUTE)

    Execution Region ER_IROM1 (Exec base: 0x08000000, Load base: 0x08000000, Size: 0x000009cc, Max: 0x00008000, ABSOLUTE)

    Exec Addr    Load Addr    Size         Type   Attr      Idx    E Section Name        Object

    0x08000000   0x08000000   0x00000080   Data   RO          113    RESET               startup_w32f006.o
    0x08000080   0x08000080   0x00000000   Code   RO         2337  * .ARM.Collect$$$$00000000  mc_p.l(entry.o)
    0x08000080   0x08000080   0x00000004   Code   RO         2603    .ARM.Collect$$$$00000001  mc_p.l(entry2.o)
    0x08000084   0x08000084   0x00000004   Code   RO         2606    .ARM.Collect$$$$00000004  mc_p.l(entry5.o)
    0x08000088   0x08000088   0x00000000   Code   RO         2608    .ARM.Collect$$$$00000008  mc_p.l(entry7b.o)
    0x08000088   0x08000088   0x00000000   Code   RO         2610    .ARM.Collect$$$$0000000A  mc_p.l(entry8b.o)
    0x08000088   0x08000088   0x00000008   Code   RO         2611    .ARM.Collect$$$$0000000B  mc_p.l(entry9a.o)
    0x08000090   0x08000090   0x00000000   Code   RO         2613    .ARM.Collect$$$$0000000D  mc_p.l(entry10a.o)
    0x08000090   0x08000090   0x00000000   Code   RO         2615    .ARM.Collect$$$$0000000F  mc_p.l(entry11a.o)
    0x08000090   0x08000090   0x00000004   Code   RO         2604    .ARM.Collect$$$$00002712  mc_p.l(entry2.o)
    0x08000094   0x08000094   0x0000001c   Code   RO          114    .text               startup_w32f006.o
    0x080000b0   0x080000b0   0x0000002c   Code   RO         2340    .text               mc_p.l(uidiv.o)
    0x080000dc   0x080000dc   0x00000060   Code   RO         2618    .text               mc_p.l(uldiv.o)
    0x0800013c   0x0800013c   0x00000024   Code   RO         2631    .text               mc_p.l(init.o)
    0x08000160   0x08000160   0x00000020   Code   RO         2633    .text               mc_p.l(llshl.o)
    0x08000180   0x08000180   0x00000022   Code   RO         2635    .text               mc_p.l(llushr.o)
    0x080001a2   0x080001a2   0x0000002e   Code   RO          120    i.GPIO_Configuration  main.o
    0x080001d0   0x080001d0   0x00000084   Code   RO          793    i.GPIO_Init         w32f006_gpio.o
    0x08000254   0x08000254   0x0000001c   Code   RO          799    i.GPIO_WriteBit     w32f006_gpio.o
    0x08000270   0x08000270   0x00000002   Code   RO          169    i.HardFault_Handler  w32f006_it.o
    0x08000272   0x08000272   0x00000002   PAD
    0x08000274   0x08000274   0x0000002c   Code   RO         2204    i.I2C0_IRQHandler   w32f006_eval_i2c_ee.o
    0x080002a0   0x080002a0   0x00000018   Code   RO          893    i.I2C_ClearBusError  w32f006_i2c.o
    0x080002b8   0x080002b8   0x0000000c   Code   RO          897    i.I2C_GetITStatus   w32f006_i2c.o
    0x080002c4   0x080002c4   0x00000002   Code   RO          171    i.NMI_Handler       w32f006_it.o
    0x080002c6   0x080002c6   0x00000002   Code   RO          172    i.PendSV_Handler    w32f006_it.o
    0x080002c8   0x080002c8   0x00000010   Code   RO         1279    i.RCC_APBPeriphClockCmd  w32f006_rcc.o
    0x080002d8   0x080002d8   0x00000010   Code   RO         1280    i.RCC_APBPeriphResetCmd  w32f006_rcc.o
    0x080002e8   0x080002e8   0x0000012c   Code   RO         1287    i.RCC_GetClocksFreq  w32f006_rcc.o
    0x08000414   0x08000414   0x0000000a   Code   RO         1299    i.RCC_SETCLKDivider  w32f006_rcc.o
    0x0800041e   0x0800041e   0x00000002   PAD
    0x08000420   0x08000420   0x00000014   Code   RO         1302    i.RCC_UARTCLKSel    w32f006_rcc.o
    0x08000434   0x08000434   0x00000002   Code   RO          173    i.SVC_Handler       w32f006_it.o
    0x08000436   0x08000436   0x00000002   PAD
    0x08000438   0x08000438   0x00000070   Code   RO            3    i.SetSysClockTo96   system_w32f006.o
    0x080004a8   0x080004a8   0x00000002   Code   RO          174    i.SysTick_Handler   w32f006_it.o
    0x080004aa   0x080004aa   0x00000002   PAD
    0x080004ac   0x080004ac   0x00000018   Code   RO            5    i.SystemInit        system_w32f006.o
    0x080004c4   0x080004c4   0x00000010   Code   RO         1801    i.TSC_ClearITPendingBit  w32f006_tsc.o
    0x080004d4   0x080004d4   0x0000001c   Code   RO         1805    i.TSC_GetITStatus   w32f006_tsc.o
    0x080004f0   0x080004f0   0x00000024   Code   RO         2268    i.TSC_IRQHandler    w32f006_tk_lib_v1.0.o
    0x08000514   0x08000514   0x0000001c   Code   RO         1877    i.UART_Cmd          w32f006_uart.o
    0x08000530   0x08000530   0x00000056   Code   RO          121    i.UART_Configuration  main.o
    0x08000586   0x08000586   0x00000014   Code   RO         1878    i.UART_DeInit       w32f006_uart.o
    0x0800059a   0x0800059a   0x00000002   PAD
    0x0800059c   0x0800059c   0x00000014   Code   RO         1881    i.UART_GetFlagStatus  w32f006_uart.o
    0x080005b0   0x080005b0   0x00000044   Code   RO         1884    i.UART_Init         w32f006_uart.o
    0x080005f4   0x080005f4   0x0000000c   Code   RO         1887    i.UART_SendData     w32f006_uart.o
    0x08000600   0x08000600   0x0000001c   Code   RO         1888    i.UART_StructInit   w32f006_uart.o
    0x0800061c   0x0800061c   0x00000020   Code   RO         2475    i.__0printf$5       mc_p.l(printf5.o)
    0x0800063c   0x0800063c   0x0000000e   Code   RO         2645    i.__scatterload_copy  mc_p.l(handlers.o)
    0x0800064a   0x0800064a   0x00000002   Code   RO         2646    i.__scatterload_null  mc_p.l(handlers.o)
    0x0800064c   0x0800064c   0x0000000e   Code   RO         2647    i.__scatterload_zeroinit  mc_p.l(handlers.o)
    0x0800065a   0x0800065a   0x00000002   PAD
    0x0800065c   0x0800065c   0x000002dc   Code   RO         2482    i._printf_core      mc_p.l(printf5.o)
    0x08000938   0x08000938   0x00000018   Code   RO          122    i.fputc             main.o
    0x08000950   0x08000950   0x00000014   Code   RO          123    i.main              main.o
    0x08000964   0x08000964   0x00000045   Data   RO          124    .conststring        main.o
    0x080009a9   0x080009a9   0x00000003   PAD
    0x080009ac   0x080009ac   0x00000020   Data   RO         2643    Region$$Table       anon$$obj.o


    Execution Region RW_IRAM1 (Exec base: 0x20000000, Load base: 0x080009cc, Size: 0x00000450, Max: 0x00001000, ABSOLUTE)

    Exec Addr    Load Addr    Size         Type   Attr      Idx    E Section Name        Object

    0x20000000   0x080009cc   0x00000004   Data   RW            6    .data               system_w32f006.o
    0x20000004   0x080009d0   0x00000004   Data   RW            7    .data               system_w32f006.o
    0x20000008   0x080009d4   0x00000024   Data   RW         2207    .data               w32f006_eval_i2c_ee.o
    0x2000002c   0x080009f8   0x00000020   Data   RW         2276    .data               w32f006_tk_lib_v1.0.o
    0x2000004c   0x08000a18   0x00000004   Data   RW         2617    .data               mc_p.l(stdout.o)
    0x20000050        -       0x00000400   Zero   RW          111    STACK               startup_w32f006.o


==============================================================================

Image component sizes


      Code (inc. data)   RO Data    RW Data    ZI Data      Debug   Object Name

       176          4         69          0          0       3477   main.o
        28          8        128          0       1024        788   startup_w32f006.o
       136         30          0          8          0     103505   system_w32f006.o
        44         10          0         36          0       2607   w32f006_eval_i2c_ee.o
       160         18          0          0          0       2148   w32f006_gpio.o
        36         10          0          0          0       1174   w32f006_i2c.o
        10          0          0          0          0       2315   w32f006_it.o
       362         32          0          0          0       4161   w32f006_rcc.o
        36          8          0         32          0       3042   w32f006_tk_lib_v1.0.o
        44          8          0          0          0       1278   w32f006_tsc.o
       176         22          0          0          0       4320   w32f006_uart.o

    ----------------------------------------------------------------------
      1218        150        232         76       1024     128815   Object Totals
         0          0         32          0          0          0   (incl. Generated)
        10          0          3          0          0          0   (incl. Padding)

    ----------------------------------------------------------------------

      Code (inc. data)   RO Data    RW Data    ZI Data      Debug   Library Member Name

         0          0          0          0          0          0   entry.o
         0          0          0          0          0          0   entry10a.o
         0          0          0          0          0          0   entry11a.o
         8          4          0          0          0          0   entry2.o
         4          0          0          0          0          0   entry5.o
         0          0          0          0          0          0   entry7b.o
         0          0          0          0          0          0   entry8b.o
         8          4          0          0          0          0   entry9a.o
        30          0          0          0          0          0   handlers.o
        36          8          0          0          0         68   init.o
        32          0          0          0          0         68   llshl.o
        34          0          0          0          0         68   llushr.o
       764         52          0          0          0        168   printf5.o
         0          0          0          4          0          0   stdout.o
        44          0          0          0          0         72   uidiv.o
        96          0          0          0          0         84   uldiv.o

    ----------------------------------------------------------------------
      1058         68          0          4          0        528   Library Totals
         2          0          0          0          0          0   (incl. Padding)

    ----------------------------------------------------------------------

      Code (inc. data)   RO Data    RW Data    ZI Data      Debug   Library Name

      1056         68          0          4          0        528   mc_p.l

    ----------------------------------------------------------------------
      1058         68          0          4          0        528   Library Totals

    ----------------------------------------------------------------------

==============================================================================


      Code (inc. data)   RO Data    RW Data    ZI Data      Debug   

      2276        218        232         80       1024     128175   Grand Totals
      2276        218        232         80       1024     128175   ELF Image Totals
      2276        218        232         80          0          0   ROM Totals

==============================================================================

    Total RO  Size (Code + RO Data)                 2508 (   2.45kB)
    Total RW  Size (RW Data + ZI Data)              1104 (   1.08kB)
    Total ROM Size (Code + RO Data + RW Data)       2588 (   2.53kB)

==============================================================================

